:020000040800F2
:10000000F84C0020090E000895020008970200082D
:10001000990200089B0200089D02000800000000F1
:10002000000000000000000000000000FD010008CA
:10003000A10200080000000041020008D3140008DB
:10004000230E0008230E0008230E0008230E0008CC
:10005000230E0008230E0008230E0008230E0008BC
:10006000230E0008230E0008230E0008230E0008AC
:10007000230E0008230E0008230E0008230E00089C
:10008000230E0008230E0008230E0008230E00088C
:10009000230E0008230E0008230E0008230E00087C
:1000A000230E0008230E0008230E0008230E00086C
:1000B000230E0008230E0008230E0008230E00085C
:1000C000230E0008230E0008230E0008230E00084C
:1000D000230E000805110008A5020008230E0008E1
:1000E000230E0008230E0008230E0008230E00082C
:1000F000230E0008230E0008230E0008230E00081C
:10010000230E0008230E0008230E0008230E00080B
:10011000230E0008230E0008230E0008230E0008FB
:10012000230E0008230E0008230E0008230E0008EB
:1001300000F002F800F052F80AA090E8000C8244A7
:100140008344AAF10107DA4501D100F047F8AFF284
:10015000090EBAE80F0013F0010F18BFFB1A43F0A5
:10016000010318470842000028420000103A24BF4B
:1001700078C878C1FAD8520724BF30C830C144BF0C
:1001800004680C607047000000230024002500264E
:10019000103A28BF78C1FBD8520728BF30C148BFEA
:1001A0000B607047662903F07A87782901F0D487BD
:1001B000002070471FB59DE8030002F08DFE02F09D
:1001C00001FB04000020002103F08CFCE06002F041
:1001D00011FC1FBD10B502F076FC10BD02F0DEFC74
:1001E0001146FFF7E7FF00F081F802F0E3FD03B4EA
:1001F000FFF7F0FF03BC03F001F80000224B196881
:100200000868B0E8F00F80F30988BFF36F8F4FF0F4
:10021000000080F311884EF00D0E704700000000C2
:1002200006480068006880F3088862B661B6BFF3CC
:100230004F8FBFF36F8F00DF00BF00BF08ED00E0FE
:10024000EFF30980BFF36F8F0F4B1A6820E9F00FAF
:10025000106008B54FF0BF0080F31188BFF34F8FD7
:10026000BFF36F8F01F0B2FB4FF0000080F31188F5
:10027000BDE8084019680868B0E8F00F80F3098805
:10028000BFF36F8F704700BF7C000020EFF3058045
:10029000704700007047FEE7FEE7FEE7FEE77047A5
:1002A0007047704770B5084D40F2255421462846E6
:1002B00000F0CFFC002805D021462846BDE870405C
:1002C00000F0E6BC70BD000000440040184C07225E
:1002D0001849204600F0C8FDC82001F0EEFAF6E704
:1002E00000F030FF322001F0E8FAF9E71CB500F029
:1002F00000FE00F01FFE0F4901200839CDE9000182
:1003000000234FF4FA720CA1AFF22B0001F05FF959
:1003100008490220091F0023CDE90001C8220AA1D3
:10032000AFF2570001F053F901F027FC00201CBD8B
:100330000038014008000020537065656453656E05
:10034000645461736B0000004D616753656E7365A3
:10035000517565727900000070B506460D4600249F
:100360000FA001F0EDFE05E0315D0FA001F0E8FE09
:10037000641CA4B2AC42F7D3BDE870400BA001F0FE
:10038000DFBE70B50A4D044681B2284600F0F6FB88
:100390004021284600F053FC0028F9D0204670BDCB
:1003A0005B4845585D200000257820000D0A0000BC
:1003B00000480040A548016841F001010160416822
:1003C000A34A114041600168A24A114001600168DE
:1003D00021F480210160416821F4FE0141604FF465
:1003E0001F018160704799490A6822F480320A60CF
:1003F0000A6822F480220A60B0F5803F07D0B0F589
:10040000802F03D1086840F4A02008607047086876
:1004100040F48030F9E70246002053098B49012B54
:100420000AD0022B0AD0496A02F01F02012393402E
:100430000B4200D0012070470968F5E7096AF3E72D
:1004400018B500204FF4A06400903120FFF7E3FFBF
:100450000099491C0091A14201D00028F5D031201B
:10046000FFF7D9FF002800D0012018BD77490A689E
:1004700022F0F80242EAC00008607047764908603E
:100480007047724A5368084323F47C131843506042
:1004900070477149086670476C4A516821F0030142
:1004A0000143516070476948406800F00C00704794
:1004B000664A516821F0F001014351607047634A78
:1004C000516821F4E0610143516070475F494A6817
:1004D00022F4605242EAC000486070475B4A00293B
:1004E000517A01D0014300E08143517270475A496B
:1004F000D83108607047554A516821F440410143A2
:10050000516070475149002281F8202081F8202055
:10051000012802D0042802D1052081F8200070476C
:100520004E490860704749490A6A02430A627047A7
:100530004A4944390860704730B544494A6812F066
:100540000C03474A03D0042B01D0082B22D00260B1
:100550004A680F23434C03EA1212A35C0268DA4094
:1005600042604B68072505EA1323E35C22FA03F394
:1005700083604B6805EAD323E35C22FA03F2C2608E
:100580004968032303EA9131231F595CB2FBF1F15F
:10059000016130BD4A684B6802F470124FF00204EA
:1005A00013F4803F04EB924202D04B689B0301D5C9
:1005B0002D4B00E02A4B5A43C9E7244A00295169D0
:1005C00001D0014300E08143516170471F4A002977
:1005D000916901D0014300E08143916170471B4A5A
:1005E0000029D16901D0014300E08143D161704706
:1005F000164A0029D16801D0014300E08143D1604F
:100600007047124A0029116901D0014300E081437B
:100610001161704711494039086070470E49C8643C
:1006200070470A49C87170470848416A41F08071B3
:1006300041627047054A0146002092680A4200D094
:100640000120704701498872704700000010024085
:100650000000FFF8FFFFF6FE000042428004424225
:1006600000127A001300002000093D008F4910B5E8
:10067000884206D101210420FFF7BAFF002104209F
:100680003BE08B49884206D101210820FFF7B0FFEB
:100690000021082031E08749884206D1012110203D
:1006A000FFF7A6FF0021102027E08349884206D1EA
:1006B00001212020FFF79CFF002120201DE07F4921
:1006C000884206D101214020FFF792FF00214020FF
:1006D00013E07B49884206D101218020FFF788FF83
:1006E0000021802009E0774988420AD18415012140
:1006F0002046FFF77DFF00212046BDE81040FFF7B0
:1007000077BF10BD10B501210846FFF771FF00212A
:10071000BDE810400120FFF76BBFF0B5CA78002597
:1007200002F00F03D20601D58A7813430C784FF0FC
:100730000F0E0122E4B104680F8802FA05F6374073
:10074000B74211D14FEA850C0EFA0CF724EA0707DD
:1007500003FA0CF43C43CF78282F02D0482F02D064
:1007600002E0466100E006616D1C082DE4D30460E0
:100770000C88FF2C1ED944685FF0000606F10807BC
:1007800002FA07F50F882F40AF420FD14FEA860CCF
:100790000EFA0CF7BC4303FA0CF73C43CF78282F32
:1007A00000D14561CF78482F00D10561761C082E15
:1007B000E4D34460F0BD4FF6FF71018002218170E7
:1007C0000421C17070470246002092680A4200D09E
:1007D00001207047806880B2704702460020D268CE
:1007E0000A4200D001207047C06880B270470161A2
:1007F0007047416170470AB10161704741617047BC
:10080000C160704741F48032826181618261816997
:10081000806970472C4B10B51A684FF680742240DF
:1008200042EA00100843186010BD2849C8617047AB
:10083000F0B5254C002801DAE36900E06368420D59
:10084000120185B2C0F301579540C0F30346032F50
:1008500005D0C2020AD50322B240934307E023F039
:100860007062636823F07063636002E0AB4343F03F
:10087000706201B12A43002801DAE261F0BD6260D2
:10088000F0BD10B58A0721F003040F49130F21446E
:100890000F228C689A4094438C608A689840024387
:1008A0008A6010BD0949DC310860704700080140CA
:1008B000000C0140001001400014014000180140EC
:1008C000001C0140002001400000014000002042C7
:1008D00027490843274908607047F0B50F21C478BD
:1008E000027801234FF0E026DCB1224C24684578E1
:1008F00004F4E064C4F5E064240AC4F10407E140B0
:100900008478BD400C402C4321011B4C11550078CC
:1009100000F01F018B40400906EB8000C0F8003159
:10092000F0BD02F01F008340500906EB8000C0F8C4
:100930008031F0BD114A114001430E48001F016093
:1009400070470C4A121D0029116801D0014300E0D4
:100950008143116070474FF0E0210428086903D0FB
:1009600020F004000861704740F00400FAE700003E
:100970000000FA050CED00E000E400E080FFFF1F3E
:10098000C64910B588420AD101218C032046FFF7E1
:100990002FFE2046BDE810400021FFF729BEC049C8
:1009A000884202D101214C0410E0BE49884202D1A4
:1009B00001218C040AE0BC49884202D10121CC0407
:1009C00004E0BA4988420AD101210C052046FFF70C
:1009D00018FE2046BDE810400021FFF712BE10BDF2
:1009E00030B50446008A85B00D464CF6FF710840CC
:1009F000E98801432182A1894EF6F3100140A888BD
:100A00002A8910436A890A431043A081A08A4FF6BD
:100A1000FF410840A9890143A1826846FFF78CFD88
:100A20009E48844201D1039800E00298A1890904FC
:100A3000002900EBC00101EB0010296802DA4FEA3F
:100A4000410101E04FEA8101B0FBF1F06422B0FB0B
:100A5000F2F14FEA01114FEA11136FF018056B43E1
:100A600000EB8300A3891D044FF0320306D503EB8E
:100A7000C000B0FBF2F000F0070005E003EB00104F
:100A8000B0FBF2F000F00F000843208105B030BD4C
:100A90004FF41651016000218180C18001810C2238
:100AA00042818181704710B5038A4FF2FF021340E3
:100AB0000A884C8822438C88C9880C4322431A43F5
:100AC000028210BD0021018041808180C180704779
:100AD0000029818902D041F4005101E021F4005144
:100AE0008181704710B5C1F3421301F01F04012149
:100AF000A140012B07D0022B07D01430002A026836
:100B000005D00A4304E00C30F8E71030F6E78A43DA
:100B1000026010BD002A828A01D00A4300E08A43A5
:100B200082827047028A22F00F020282028A0A43FE
:100B300002827047828922F40062828182890A439C
:100B4000828170470029818902D041F0020101E0D1
:100B500021F0020181817047028A22F02002028284
:100B6000028A0A43028270470029018A02D041F4B6
:100B7000804101E021F4804101827047C1F3080106
:100B8000818070478088C0F308007047818941F0F8
:100B9000010181817047028BD2B20283028B42EA4B
:100BA000012101837047028B02F47F420283028B92
:100BB0000A43028370470029818A02D041F0200154
:100BC00001E021F02001818270470029818A02D052
:100BD00041F0100101E021F01001818270470029ED
:100BE000818A02D041F0080101E021F008018182F0
:100BF00070470029818902D041F4004101E0C1F32E
:100C00000E01818170470029818A02D041F4006180
:100C100001E021F4006181827047828A22F004029F
:100C20008282828A0A43828270470029818A02D0A6
:100C300041F0020101E021F0020181827047024689
:100C4000002012880A4200D001207047C943018069
:100C5000704730B501F01F0201240025C1F3421393
:100C600004FA02F2012B0FD0022B0FD0838A4FEA35
:100C700011210088134204FA01F400EA040001D0B3
:100C800000B10125284630BD8389F0E7038AEEE7ED
:100C90000A0A01219140C943018070470038014090
:100CA0000044004000480040004C0040005000401C
:100CB0000CB500214C4801910091026842F4803249
:100CC00002604FF4A063026802F400320092019ABD
:100CD000521C0192009A12B9019A9A42F3D1026809
:100CE000920333D50121009140490A6842F0100275
:100CF0000A600A6822F003020A600A6842F00202EF
:100D00000A604168416041684160416841F4806126
:100D10004160416821F47C114160416841F4E8116F
:100D20004160016841F08071016001688901FCD572
:100D3000416821F003014160416841F002014160D6
:100D40004168C1F381010229FAD10CBD00910CBDAB
:100D5000254810B5016841F0010101604168244A4D
:100D6000114041600168234A11400160016821F48B
:100D700080210160416821F4FE0141604FF41F01B0
:100D80008160FFF795FF1C494FF00060086010BDBF
:100D9000154910B54868194A10F00C03184803D0DB
:100DA000042B01D0082B0BD002604968144AC1F310
:100DB0000311121D515C026822FA01F2026010BD9B
:100DC0004A684B6802F470124FF0020413F4803F3B
:100DD00004EB924202D04B689B0301D5094B00E023
:100DE000064B5A43E0E7000000100240002002409A
:100DF0000000FFF8FFFFF6FE08ED00E000127A00A9
:100E00002400002000093D000948804709480047A8
:100E1000FEE7FEE7FEE7FEE7FEE7FEE7FEE7FEE7AA
:100E2000FEE7FEE704480549054A064B7047000007
:100E3000510D000831010008F8460020F84C002050
:100E4000F8480020F848002008B54FF40060ADF8DD
:100E5000000010208DF8030003208DF80200694681
:100E60000D48FFF75AFC08BD2DE9F04115460E4626
:100E7000074600240BE0315D3846FFF77FFE402136
:100E80003846FFF7DCFE0028F9D0641CA4B2AC425F
:100E9000F1D3BDE8F0810000001C01404C4A4FF442
:100EA000006120B1012805D11046FFF7A2BC104611
:100EB000FFF79DBC70471FB5044600910021ADF8B7
:100EC0000810ADF804100C20ADF80610ADF80C10A9
:100ED000ADF80A0069462046FFF782FD012240F284
:100EE00025512046FFF7FEFD01212046FFF7F0FDCA
:100EF0001FBD38B501218D20FFF768FB01214FF49C
:100F0000C820FFF763FB684600F026F84FF4E13491
:100F100021463048FFF7CFFF21462F48FFF7CBFF90
:100F200021462E48FFF7C7FFFFF78EFF0020FFF78F
:100F3000B5FF38BD08B54FF4C060FFF7C9FC00200D
:100F40008DF8020001208DF8030027208DF80000A5
:100F50006846FFF7C2FC08BD2DE9F0471826044695
:100F6000C670032787704FF40070DFF874902080FC
:100F700021464846FFF7D1FB4FF48068DFF864A0B4
:100F8000A4F800800425E57021465046FFF7C5FB14
:100F9000E6702580A77021464846FFF7BEFBE57046
:100FA0000820208021464846FFF7B7FBE670A4F8EA
:100FB0000080A77021465046FFF7AFFBE57068023E
:100FC000208021465046BDE8F047FFF7A6BB000051
:100FD000001C01400038014000440040004800402F
:100FE00000080140000C01402DE9F0470A46054683
:100FF0003B49104602F012FF81464C4639492846CB
:1010000002F00CFF8046214602F0D4FF364902F080
:1010100005FF364E314602F00FFE354F394602F0DD
:101020000BFE02F0CBFE334C05B2494665804046CC
:1010300002F0A0FD304902F0F1FE314602F0FCFD65
:10104000394602F0F9FD02F0B9FE00B2A080217825
:101050002A4FC1B104F10E0506216871000A2871FA
:10106000284600F027F8A8710621284600F022F84B
:10107000000AE871082229463846FFF7F5FE0020ED
:101080002070BDE8F0871B4E280AB61D0621757139
:101090003071304600F00EF8B0710621304600F095
:1010A00009F8000AF071082231463846FFF7DCFEE5
:1010B0000120E5E770B5124DFF231A4605F580764D
:1010C00006E000BF10F8014B54402A5D5A40335DE2
:1010D0000C00A1F1010189B2F4D142EA032070BDF4
:1010E0007B143E40000090410000F0C2DA0F4940FE
:1010F0008FC2F53D380000200000F042004400405F
:10110000A240000870B5644C40F22555294620469F
:10111000FFF79FFD002814D02046FFF733FD604BFA
:1011200001465E481A788154521C1A700078522881
:1011300001D00020187029462046BDE87040FFF716
:10114000A7BD70BD70B5554800F01DF8544C002582
:1011500008345449256002F061FE0146606028466B
:10116000FFF742FF206802F0D9FC02460B464EA072
:1011700000F0E6FF4E492068884203DA4D4902F04C
:10118000F9FC206070BD7CB5454C21780A2921D33B
:1011900049A2D2E90012CDE9001200216A460D46AB
:1011A000435C565CB34214D1491CC9B20529F7D33C
:1011B000417982790904C07941EA02210843257006
:1011C00003D000F009F8606003E03548083005609E
:1011D0006560257060687CBD2DE9F0434FF0000923
:1011E0000546A1B04E464C4600F0010002F002FE5A
:1011F000334F0DF140080F90204602F0FBFD3946B9
:1012000002F0D8FE48F82400641CE4B2102CF3D39A
:1012100008246F4625FA04F000F0010002F0EAFD10
:1012200007EB8402641CE4B242F8040C102CF1D3E6
:101230005FF0010404F1100025FA00F000F0010055
:1012400002F0D8FD07EB8401641CE4B241F8040C01
:10125000082CEFD35FF0000457F8241011F0FF4F73
:1012600001D0761CF6B258F8240002F0D7FD4946AA
:1012700002F080FC641CE4B28146102CECD33046B2
:1012800002F0B8FD0146484602F0D6FC21B00D49F7
:10129000BDE8F04302F0C2BD00380140C4000020A8
:1012A00050000020CDCC4C3D252E34660A000000B5
:1012B0009A99193F0AD7233C524D67737700000073
:1012C0000000F040000020412DE9F04104460025D7
:1012D00000F0C8FA374A02F10801506801F108032A
:1012E00068B93548002720F00700C1E9000744F23B
:1012F000F836C3E90076C0E900360120506044F2B8
:10130000F73094B30834660704D004F00706C6F13A
:1013100008063444661E864227D2264809680830EB
:1013200001E0084631464E68A64202D20E68002E01
:10133000F7D1994219D005680B68036048680835F1
:10134000001B10280DD90B1958601A484C60083042
:101350005E6800E0204604686768B742FAD31C6004
:10136000036048681168081A106000F0F4F9284614
:10137000BDE8F08110B5002817D0A0F1080400F0F6
:1013800071FA0C486168083000E010460268536842
:101390008B42FAD3226004600648616802681144F7
:1013A0000160BDE8104000F0D6B910BD01480068EA
:1013B0007047704760000020DB00002000F108014A
:1013C0004FF0FF32C0E90112C160016100210160EC
:1013D000704700210161704742684A6093688B60E2
:1013E00093685960916008610168491C0160704709
:1013F00030B50B685A1C02D000F1080202E0026905
:1014000004E02246546825689D42FAD953684B602F
:1014100099608A60516008610168491C016030BDB3
:10142000D0E9013201699A60D0E901235A604A6823
:10143000824201D182684A60002202610868401E2F
:1014400008607047BF2080F31188BFF34F8FBFF350
:101450006F8FFEE710B5031F4FF080741C601B1FD9
:1014600021F001011960191F244B0B601439403819
:101470000A6010BD4FF0E020214941610721016160
:101480007047204810B5016841F47F010160016890
:1014900041F07F410160FFF7EDFF1B49002008602C
:1014A000FEF7BEFE002010BD7047BF2080F31188FC
:1014B000BFF34F8FBFF36F8F13480168491C016062
:1014C000704711490868401E086001D180F31188F7
:1014D000704710B5BF2080F31188BFF34F8FBFF363
:1014E0006F8F00F0E4F820B106494FF080501C39AE
:1014F0000860002080F3118810BD0000451400082A
:101500003F19010020ED00E0780000202DE9F041B6
:101510000546FFF7CAFFFA4CA068401CA06020688F
:10152000F84F10B1606940B32DE02560A068012834
:1015300029D1002606EB860007EB8000FFF73EFF6F
:10154000761C052EF6D3EF486430FFF737FFED48E1
:101550007830FFF733FFEB488C30FFF72FFFE94877
:10156000A030FFF72BFFE748B430FFF727FFE5482F
:10157000643060631430A06305E02068E96AC06AE3
:10158000884200D82560606A401C6062E96A0120D8
:10159000226988401043206101EB810007EB800045
:1015A000291DFFF719FFFFF78CFF606900280CD099
:1015B0002068E96AC06A884207D2D3494FF0805058
:1015C0000860BFF34F8FBFF36F8FBDE8F0812DE947
:1015D000FF5F8346DDE90E87994616468A469000EE
:1015E000FFF772FE05001AD04C20FFF76DFE0400D5
:1015F00012D025630021CDE90241CDE900874B4699
:1016000032465146584600F00FFD2046FFF77EFF58
:10161000012004B0BDE8F09F2846FFF7ABFE4FF075
:10162000FF30F6E770B50546FFF73FFFB44C05B94C
:101630002568281DFFF7F4FE58B9E86AB14A00EBA7
:10164000800152F8211021B901218140206988438D
:101650002061A86A18B105F11800FFF7E1FE606A81
:10166000401C60622068854208D1A648291DA03030
:10167000FFF7B2FE6068401C606007E0A068401E93
:10168000A060284600F018FD00F009FDFFF719FFE3
:10169000606900280AD02068854207D19A494FF036
:1016A00080500860BFF34F8FBFF36F8F70BD2DE97F
:1016B000F041934C0027206B38B1A069401CA06119
:1016C000E06900B1012738467FE7E668761CE660EE
:1016D00008D1606BA16B6163A063206A401C20622B
:1016E00000F0DDFCA06ADFF81C82864209D3606B43
:1016F000006880B1606BC068C568686886420DD2BA
:10170000A0622068C06A00EB800158F8210001281F
:10171000D6D90127D4E74FF0FF30F1E7281DFFF7B6
:101720007FFEA86A18B105F11800FFF779FEE86A94
:101730000121226981401143216100EB800108EB06
:101740008100291DFFF748FEE86A2168C96A8842BE
:10175000CDD30127CBE72DE9F04700242646FFF73C
:10176000A4FE674D286B401E2863286BE8BBA96860
:10177000644F8C370120C1B3DFF888918046386808
:10178000E8B1F868C46804F11800FFF749FE201DAD
:10179000FFF746FEE06A2A6908FA00F11143296161
:1017A00000EB800109EB8100211DFFF715FEE06AC7
:1017B0002968C96A8842E2D3C5F81C80DFE70CB10A
:1017C00000F06DFCAC694CB14FEA0807FFF76FFF02
:1017D00000B1EF61641EF9D10020A861E86920B171
:1017E000494901263007086000E003E0BFF34F8F4E
:1017F000BFF36F8FFFF765FE3046BDE8F0872DE938
:10180000F0413F4C0F460546E6682068001DFFF793
:1018100007FE38B9206890F82C1001208840216913
:1018200081432161681C08D13FB12168BDE8F041C6
:101830003448091DB430FFF7CFBD20683544B542A8
:101840004560216801F1040104D2A06BBDE8F041BC
:10185000FFF7CEBD606BFFF7CBFDA06A854200D2DB
:10186000A562B2E62648016B491C0163704770B55A
:101870000D460446FFF7F6FF2148C2682368591950
:10188000934204D98B420AD9914202D807E08B4295
:10189000FAD9881A21600021FFF7B1FF00E021602A
:1018A000FFF759FF002807D117494FF08050086013
:1018B000BFF34F8FBFF36F8F70BD10B5020009D01B
:1018C000FFF7D0FF00211046FFF799FFFFF743FF16
:1018D000002807D10C494FF080500860BFF34F8FAC
:1018E000BFF36F8F10BD10B50446FFF7DEFD0CB9D6
:1018F00003480468E46AFFF7E4FD204610BD0000D9
:101900007C000020D444002004ED00E0BF22EFF36F
:10191000118182F31188BFF34F8FBFF36F8F08B926
:10192000FB480068C06A81F3118870472DE9F041D7
:1019300000270E460446052900D30426FFF7B5FD0F
:10194000F34D04B92C68E06AB0423BD02968864266
:1019500006D98C4207D02968C96AB14202D902E08F
:101960008C4200D101278046E662A069002802DB94
:10197000C6F10500A061E74E08EB8800616906EB3F
:101980008000814215D1201DFFF74AFD012120B9B9
:101990002A6901FA08F082432A61E06A2A698140D3
:1019A0001143296100EB800006EB8000211DFFF749
:1019B00013FD3FB1D8494FF080500860BFF34F8FFF
:1019C000BFF36F8FBDE8F041FFF77BBDD048016BDF
:1019D00011B10121C16170470021C1610169CD4A86
:1019E000B1FA81F1C1F11F0101EB810102EB81012B
:1019F00001F108034A6852684A609A4201D152686C
:101A00004A60D1680160704770B50446FFF74DFD2C
:101A1000BF4D04B92C68201DFFF702FD58B9E06ADC
:101A2000BC4A00EB800152F8211021B9012181400C
:101A3000286988432861A06A18B104F11800FFF7EB
:101A4000EFFCB448211DB430FFF7C6FCFFF739FDA9
:101A5000686928B1FFF729FD00F021FBFFF731FD90
:101A60002868844209D1686940B1AB494FF0805081
:101A70000860BFF34F8FBFF36F8F70BDA548A96893
:101A8000B4300068884202D10020286070BDBDE8F3
:101A900070409BE770B504002BD09D4D28688442B0
:101AA00027D0FFF702FD204600F010FBE8B1201D13
:101AB000FFF7B6FCE06A01212A69814011432961E0
:101AC000944900EB800001EB8000211DFFF784FCAE
:101AD000E06A2968C96A884207D38F494FF080506D
:101AE0000860BFF34F8FBFF36F8FBDE87040FFF703
:101AF000E8BC70BD2DE9F04100270446BF20EFF39C
:101B0000118580F31188BFF34F8FBFF36F8F20468D
:101B100000F0DCFAF0B17E4E306B20B17D4804F16C
:101B200018018C3014E0E06A3168C96A884200D339
:101B30000127201DFFF774FCE16A0120326988400B
:101B40001043306101EB8100724901EB8000211DDF
:101B5000FFF742FC85F31188384636E56D4C4FF0AF
:101B600080566D4D00F0C1FA20680128FAD92E6028
:101B7000BFF34F8FBFF36F8FF4E71CB564480024A9
:101B80002C30CDE900402346802264A16548FFF750
:101B90001EFD012811D1BF2080F31188BFF34F8FA4
:101BA000BFF36F8F5A484FF0FF31816201214161CD
:101BB000C460BDE81C40FFF764BC1CBDBF2080F3BF
:101BC0001188BFF34F8FBFF36F8F514900204861D9
:101BD000FFF76ABC4E48C06870474D48C068704700
:101BE0004B488068704708B94948006834307047EE
:101BF00010B50C46464909681831FFF7F9FB204635
:101C0000BDE810400121FAE5034610B540481446EE
:101C100041F0004102689161016818461831FFF7F0
:101C2000DBFB2046BDE810400121E8E52DE9F0414D
:101C3000C068C46804F118000746FFF7F1FB344D93
:101C4000286B012660B1334839468C30FFF7C4FB5E
:101C5000E06A2968C96A884212D90120EE61B4E4B9
:101C6000201DFFF7DDFBE16A2A6906FA01F0104347
:101C7000286101EB8100274901EB8000211DE5E788
:101C80000020A2E470B541F000410160C468FFF794
:101C9000C7FB201DFFF7C4FB1D4DE16A01262A6921
:101CA00006FA01F01043286101EB8100194901EBAC
:101CB0008000211DFFF790FBE06A2968C96A88420D
:101CC00002D90120EE6170BD002070BD10490A6A82
:101CD0000260C9684160704770B50D460446FFF761
:101CE000E4FB0B4AD1682868431C0FD02368126AB2
:101CF000934202D062688A4216D96268891A814288
:101D000012D2401A28602046FFF7E0FF00240CE0C2
:101D10007C000020D444002004ED00E049444C4500
:101D2000000000005D1B00080124FFF7CAFB2046ED
:101D300070BDFE490120C8617047FC4908680A6807
:101D40008069D26A0968C2F105028A61704770B57C
:101D50000C460646FFF7A9FBF44D2868406C80B995
:101D60002968012081F848005CB101212046FFF775
:101D700046FDEF494FF080500860BFF34F8FBFF32F
:101D80006F8FFFF79EFBFFF790FB2868446C0020E5
:101D900034B116B12968486402E02A68611E5164B2
:101DA000296881F84800FFF78CFB204670BD2DE9BB
:101DB000F0411E46154688460746FFF776FBDB4C8A
:101DC000206890F84800022814D02068416CB9437C
:101DD00041642168012081F848005EB1012130464C
:101DE000FFF70DFDD2494FF080500860BFF34F8FD1
:101DF000BFF36F8FFFF765FBFFF757FB15B1206847
:101E0000406C2860206890F8480001280DD02068B8
:101E1000416C21EA0801416401252168002081F814
:101E20004800FFF74EFB28464EE40025F5E72DE974
:101E3000F0411F4690460D4601260446FFF735FB4C
:101E40000FB1606C386094F84800022184F84810A3
:101E5000B8F1050F0ED2DFE808F00D03060C0A00FA
:101E6000616C294301E0616C491C616402E0022855
:101E700003D06564012802D020E000261EE0201D6A
:101E8000FFF7CEFAA94DE16A01202A698840104384
:101E9000286101EB8100A74901EB8000211DFFF7BC
:101EA0009BFAE06A2968C96A884207D9A0494FF0BD
:101EB00080500860BFF34F8FBFF36F8FFFF701FBB8
:101EC0003046CEE42DE9F04704464FF00108BF202C
:101ED000EFF31186DDF8209080F31188BFF34F8F68
:101EE000BFF36F8F0BB1606C186094F84800022349
:101EF00084F84830052A0ED2DFE802F00D03070C03
:101F00000A00626C0A43626405E0616C491C01E0EE
:101F1000022803D06164012803D029E04FF00008B3
:101F200026E0824D286B012788B1824804F1180110
:101F300010F18C00FFF750FAE06A2968C96A8842FC
:101F400016D9B9F1000F12D0C9F8007010E0201DA9
:101F5000FFF766FAE16A2A6907FA01F0104328617F
:101F600001EB8100734901EB8000211DE2E7EF6185
:101F700086F31188404640E42DE9F0410446884646
:101F8000BF20EFF3118680F31188BFF34F8FBFF3AB
:101F90006F8F04F14400017902220271626C521CBD
:101FA0006264012926D1614D286B012788B16148FF
:101FB00004F1180110F18C00FFF70EFAE06A2968AD
:101FC000C96A884216D9B8F1000F12D0C8F800705B
:101FD00010E0201DFFF724FAE16A2A6907FA01F0F0
:101FE0001043286101EB8100524901EB8000211D63
:101FF000E2E7EF6186F3118833E410B560B104467F
:10200000FFF753FA94F84800022808D05FF0000464
:10201000FFF757FA204671E444480468F0E70020CF
:1020200084F848000124F3E72DE9F0479A46DDE9FA
:10203000096481466FF00303206B03EB82021044B6
:10204000089D20F00707002023180A5C83F834203D
:102050000A5C12B1401C1028F6D34FF0000884F837
:102060004380052D00D30425201DE562FFF7B1F95B
:1020700004F11800FFF7ADF9C5F105002461A06176
:102080006462C4F8448084F8488052464946384621
:10209000FFF7E0F92060002E00D034606BE72348A2
:1020A000416B096829B1416BC968C9684968816297
:1020B00070474FF0FF31FAE710B50446006BFFF7A9
:1020C00059F92046BDE81040FFF754B9194B426951
:1020D0000021B4339A4206D1806AA3F128029042CB
:1020E00001D000B901210846704770B5114E0F4C60
:1020F000A03617E0FFF7B6FB3068E8B1FFF72BFB1F
:10210000FFF7D3F9F068C568281DFFF789F9A068C3
:10211000401EA0606068401E6060FFF7D2F928464C
:10212000FFF7CAFF60680028E4D170BD7C00002082
:1021300004ED00E0D4440020FFF70DFBF2E70000BF
:102140000FB4044910B503AA029800F029FB10BC93
:102150005DF814FBF045002070B504460D4621469D
:102160001068AFF300802188090502D5104A7A442F
:1021700002E00F4A7A440E32002104F1240307E002
:1021800000F00F064FEA1010965D5E5401F1010158
:102190000028F5D103462078000704D5702D02D021
:1021A00009B1113202232046BDE8704000F08CB81E
:1021B000302100002DE9F0474FF0000A894604461F
:1021C000C0F820A02046E1688847002876D025285E
:1021D00006D0D4E901219047206A401C2062F1E733
:1021E000E168204600258847C4F81CA00646002761
:1021F000C4F818A02A2E09D0304601F06CFC38B380
:1022000004EB8708303EC8F8186019E059F8041B41
:10221000204604EB87029161E1688847012F06465A
:1022200018D1E069002820DA25F020051DE0D8F853
:10223000180000EB800006EB40003038C8F81800AA
:102240002046E1688847064601F045FC0028EED1AB
:10225000012F0AD02E2E08D12046E16888477F1C26
:102260000646022F45F02005C4DBA069002803DAEA
:10227000404245F00105A061E80701D025F01005B6
:10228000B6B1A6F14100192802D8203645F4006500
:102290004A463146204625604D46FDF783FF58B13A
:1022A000012806D0ED1D25F0070000F1080989E797
:1022B00004E005F1040985E730468AE7206ABDE8B5
:1022C000F0877047704770472DE9F0470D469946F3
:1022D0009246044600F124080168880604D5E069A6
:1022E00021F01001216000E00120A84202DDA0EBF6
:1022F000050700E00027A16907EB050202EB0900D2
:10230000A1EB0000A0612078C00602D42046AFF304
:102310000080002608E0D4E901211AF80600904761
:10232000206A401C761C20624E45F4DB2078C006F3
:102330000AD52046AFF3008006E0D4E90121302021
:102340009047206A401C2062381EA7F10107F4DC88
:1023500007E0D4E9012118F805009047206A401CE5
:102360002062281EA5F10105F3DC2046AFF30080B2
:102370002078000602D50220BDE8F0870120FBE7A7
:1023800070472DE9FF4F0C461E464FF0FF378BB0CC
:10239000D2E90001DDF860800A908A46C1F30A554F
:1023A00005B93D46002108464FF00000BAF1000F84
:1023B00000F4400005DA00EB80004FF4400101EA30
:1023C00050004FEA9059B9F1010F00DDB9460A9863
:1023D00050EA4A000ED044F61050A5F2FF354543AE
:1023E0002F14B8F1000F1ED07542291E1EDDC9F151
:1023F00000021CE0B8F1010F4FF0000001D03021C5
:1024000003E0F24305E02154401CB042FBDB3046C0
:102410000022002121540B99C1F80880C1E9002055
:102420000FB0BDE8F08FBD1B6D1CDEE74A4600DA39
:10243000694206A800F068FA06AB07CB03AB07C3F6
:1024400050460A9900F078FF8DE80700A0F500508B
:102450001F3800900398002D09DD42F21F014A4603
:10246000084403A90390684601F0D7F908E0A0F5F5
:1024700000504A461F3803A90390684601F0E1F96D
:102480008DE807000004000C03D04FF0FF30410836
:1024900000E01046B8F1000F03D00022009215466C
:1024A0001FE0751E06D400F091F902F1300262556A
:1024B0006D1EF8D5B3460122084302D000227F1CCE
:1024C00004E02078302801D100227F1E002A0997DD
:1024D00087D01DE0112D07DA00F078F9303262550F
:1024E0006D1C50EA0102F5D108430FD10021681E8E
:1024F00005E0235C625C6354491C2254401E814207
:10250000F7DBAB46A81B401E099001E0009848B1DC
:10251000002004F80B000B98099AC0F80880C0E965
:10252000002B7DE711264FF000085AE72DE9F04F08
:1025300088460446D21D22F0070191B0D1E900017E
:10254000CDE90A0101F0B3FA02460B98C00F01D0A1
:102550002D2007E02068810701D52B2002E02021F3
:1025600001EAC000032A099001D0072A05DB0346CF
:102570004146204600F088F90FE12078800601D519
:10258000E06900E00620B8F1650F814606D0B8F199
:10259000660F18D0B8F1670F72D132E00020B9F1A0
:1025A000110F009001DB112301E009F101030AAAD8
:1025B00001A90CA8FFF7E5FEDDE90C70002609F182
:1025C0000105834648E001204B4600904FF000474C
:1025D0000AAA01A90CA8FFF7D4FEDDE90DB00C99F9
:1025E0005D46002618B909F1010001EB0005B9EBC1
:1025F000050003D4C0F1FF3609F10105A5EB090080
:102600002BE0B9F1010F01DA4FF001090020B9F117
:10261000110F0090484601DD112300E003460AAA8D
:1026200001A90CA8FFF7ADFEDDE90C704D460026B0
:102630008346207800070AD4AB4500DA5D4601A83E
:10264000012D04DD411911F8011C302907D04F4537
:1026500002DA17F1040F04DA0120824610E06D1E41
:10266000EEE7002F02DCED1B3E4403E0781CA8429D
:1026700000DD0546A7EB060000F1010A4FF0004718
:102680002078000703D4AA4501DB4FF0FF3A002170
:10269000B7F1004F0DF143088DF8431023D002200D
:1026A0002B23002F01DA7F422D234FF00A0C011E4D
:1026B000A0F1010000DC4FB197FBFCF10CFB1172A3
:1026C0000F4602F1300208F8012DF0E7A8F10100F1
:1026D00003702188090501D5452100E06521A0F19D
:1026E000010800F8011C09980FA9A1EB080707F1E0
:1026F000070700B1012000EB050101EBEA70A169B9
:102700003844A1EB0000A0F10100A0612078C006D0
:1027100002D42046AFF30080099830B1D4E90121FA
:102720009047206A00F1010020622078C00620D581
:102730002046AFF300801CE0002E04DBB34502DD31
:1027400001A8805D00E03020D4E901219047206A93
:10275000761C401CBAF1010A20620AD100F032F85E
:10276000C0680168405CD4E901219047206A401CA0
:102770002062281EA5F10105DEDC07E0D4E9012175
:1027800018F8010B9047206A401C2062381EA7F100
:102790000107F3DC2046AFF30080022011B040E6D1
:1027A000074B70B50D467B4400F05BF804462846A5
:1027B00000F01CF910B14FF0FF3070BD204670BD25
:1027C000D9DBFFFF00487047B846002030B5B0F1B4
:1027D0000A024FEA900E71F100034EEA817EB0EBDF
:1027E0000E0061EB91014FEA101E4EEA017E10EBE4
:1027F0000E0041EB11114FEA102E4EEA016E10EB64
:102800000E0041EB11214FEA104E4EEA014E10EB43
:102810000E0041EB1141401841F100014FEAD00098
:1028200040EA41704FEAD10110EB80054FEA810484
:1028300044EA907444EB01046D1944EB0404521B08
:10284000A3414FF0000348BF0A3200D530BD401C01
:1028500041F1000130BD000001694A1C02610878A5
:10286000704700B58FB0CDE90131002105910549D0
:102870007944CDE9031011466846FFF79BFC0FB081
:1028800000BD0000E5FFFFFF2DE9F0411F460446B3
:1028900003260168072A01F4006004DB08B116A5CD
:1028A00005E016A503E008B115A500E015A521F087
:1028B00010002060A069C01EA0610FB1401EA06181
:1028C0002046AFF300804FB1D4E90121384690474C
:1028D000206A401C2062C01C206206E0206AFAE7E1
:1028E000D4E9012115F8010B9047761EF8D2204655
:1028F000AFF30080BDE8F0814E414E006E616E0086
:10290000494E4600696E66002DE9F047814616463D
:102910008AB035487844D0E9002380680092CDE938
:102920000130314878440C38D0E902230069039221
:102930004FF03702CDE9043041F69B30014491FB62
:10294000F2F0A0F1800502FB10141B3C02D564429A
:10295000012000E00020DFF890A080460027FA4424
:10296000AAF1C60A0DE0E00709D03246684607EB37
:1029700047010AEB810100F064FF8DE80700641055
:102980007F1C002CEFD1184F7F44B43F17E0E807BD
:1029900013D007EB04100DF1180A90E80E00AAE816
:1029A0000E00C068F04201D198190890324606A97D
:1029B00003A800F046FF03AB07C36D10641C002D95
:1029C000E5D132466946B8F1000F03A802D000F005
:1029D00024FF01E000F035FFC9E90001C9F8082033
:1029E0000AB0BDE8F0870000301A0000007B00F05C
:1029F0008000704710B54248542100F0E8F9414882
:102A0000542100F0E4F94048542100F0E0F93F4936
:102A10003B483C4A3F4B08603D490A603A491960CF
:102A2000531C0365481C1065012008653B48344A67
:102A300039A1784400F022F920B9384878440A389E
:102A400000F0BEF937482F4A35A1784400F016F956
:102A500020B9344878440A3800F0B2F932482A4A9A
:102A60002FA1784400F00AF920B92F4878440A3899
:102A700000F0A6F940232248DC000021224600F0A5
:102A8000D9F820B125487844543800F099F91D4808
:102A900022464023002100F0CDF820B1214878449F
:102AA000543800F08DF9184822461023002100F018
:102AB000C1F8002806D01C487844BDE810405638BC
:102AC00000F07EB910BD104870B5006D20F0010413
:102AD0000B4800F049F90B4800F046F90A4800F0AD
:102AE00043F909E0206D20F00105204600F03CF993
:102AF000204600F078F82C46002CF3D170BD000081
:102B00009C450020F045002044460020B8000020ED
:102B1000BC000020C0000020720000002A19000044
:102B20007700000016190000021900000EB5CDE96B
:102B3000000100F043FB029069460120ABBE0EBDD0
:102B400008B5694600900220ABBE08BD1FB58DE8F0
:102B5000070069460520ABBE04B010BD1FB58DE867
:102B60000F0069460620ABBEF6E708B5694600903F
:102B70000920ABBE08BD1CB5CDE9000169460A209D
:102B8000ABBE1CBD704708B5694600900C20ABBEBB
:102B900008BD000000487047984600207546FFF7C2
:102BA000F9FFAE4605006946534620F0070085460A
:102BB00018B020B5FEF736F9BDE820404FF000060A
:102BC0004FF000074FF000084FF0000B21F0070115
:102BD000AC46ACE8C009ACE8C009ACE8C009ACE858
:102BE000C0098D46704770B50446051F00F058F9BE
:102BF0000068002C14BF446870BD002C18BFA542AB
:102C000084BF20466468F8D801680A18AA4218BF31
:102C1000456003D12A6805461144016028684119BE
:102C2000A1421CBF6C6070BD616869602168084486
:102C3000286070BD70B5C468A50713D0650211D4B3
:102C4000B2F5807F09D0B2F5007F06D0B2F5806F73
:102C500008D1012300F1240106E05D1E6FF07F46DC
:102C6000B54201D3012070BD0161C361416024F40C
:102C700070611143C160002070BD00002DE9F0417A
:102C80000C4607461646104600F06EF82078611C88
:102C900061280AD0722802D077283CD102E00125B1
:102CA000002405E00225042402E0082448F202057D
:102CB00011F8010B2B2806D0622809D011F8010C5D
:102CC00074280AD00BE045F0030544F00204EFE756
:102CD00045F0040544F00104EAE744F010043846E6
:102CE0002146FFF723FF411C15D00021316171609F
:102CF0004FF40071F560F1617061200704D5304632
:102D00000222002100F046F9306D40F001003065EC
:102D10003046BDE8F0810020FBE72DE9F0410D468B
:102D20000646104C206DC10704D0410804D020F0A5
:102D30000104F7E722460EE0542000F0FCF80700FB
:102D40000ED0206D47F0010108435421206538461C
:102D500000F03DF83A4629463046BDE8F0418DE79F
:102D60000020D6E79C4500202DE9F04704464FF0AF
:102D700000094FF0FF37C568D4E90486A80707D0DB
:102D8000204600F0B7F93046FFF7DAFE002802DAF5
:102D90003846BDE8F087280502D54046FFF723FFF7
:102DA0004C21204600F013F8206D20F00100206532
:102DB0004846EEE70446AFF300802046FDF717FAD9
:102DC00010B500F0E1F9BDE8104000F0D7B94FF0C0
:102DD000000200B5134694469646203922BFA0E86B
:102DE0000C50A0E80C50B1F12001BFF4F7AF090777
:102DF00028BFA0E80C5048BF0CC05DF804EB890068
:102E000028BF40F8042B08BF704748BF20F8022BAA
:102E100011F0804F18BF00F8012B70474FF0013CB4
:102E200050F8042B51F8043B9A4221D1A2EB0C0339
:102E3000934313EACC1317D150F8042B51F8043BF9
:102E40009A4215D1A2EB0C03934313EACC130BD196
:102E500050F8042B51F8043B9A4209D1A2EB0C0321
:102E6000934313EACC13DBD04FF00000704700BF50
:102E7000D01A01BAB1FA81F101F0180122FA01F079
:102E8000CB40C1F12001DBB2C0B2C01A2CFA01F371
:102E9000D11A914311EAC311E6D17047704700007F
:102EA00000487047A0460020704770477047704741
:102EB00038B504460A4600206946AFF30080002872
:102EC00008BF38BD02460099204600F0A4F9012051
:102ED00038BD012000F0F5B9F8B5AFF30080054624
:102EE00000200C46102000BF0646A819A0420DD9AC
:102EF000324669460020AFF30080070008BF00F0AB
:102F0000E0F90098A04218BF0546C419FFF7C8FFB2
:102F100005600746F01D20F007004619284600F01E
:102F200073F9B44208BFF8BDA21B31463868BDE84A
:102F3000F84000F070B970B50646FFF7B1FF0568BC
:102F400006F10B0020F00704B4429CBF002070BDC6
:102F50002B466A68BAB11068A04210D304F1080188
:102F600088423CBF5068586007D3516810194160CF
:102F70001168091B016058601460101D70BD134674
:102F80005268002AE7D121462846FFF791FF002822
:102F9000DED170BD2DE9F041044616460D46476965
:102FA000007B80072ED03846FFF7DFFD50BB3EB3D5
:102FB000012E02D0022E25D104E0204600F045F972
:102FC00005441DE03846FFF7DEFDE168002841F0CA
:102FD0001001E16005DA204600F058F80120BDE854
:102FE000F081C9030BD56268E16A914200D81146AD
:102FF000A26911442269891A814200DD084605440C
:10300000002D01DA0220EAE7E16A6068E2688142A5
:1030100006D29103E06203D522F4003141F01002A0
:10302000A6690027AE4213DCE16A814201D90B4652
:1030300000E0034603EB060C2369ACEB030CAC4544
:1030400006DD814201D98C4600E084469C4505D1CD
:10305000A760276042F02000A5620DE0AD1BE66985
:10306000AE1B8142A66000D90846C01A281A20600B
:103070005819606022F0200003490840E0600020F9
:1030800084F84870ABE70000BFCFD7FFC16821F4D8
:10309000001141F08001C160002181600160704732
:1030A0002DE9F047814614460E464FF0FF3832486E
:1030B000D5685769054209D03846A169FFF75BFD1D
:1030C000002811DB2C48C0430540E5602B46324602
:1030D00049463846FFF73AFDA16920F00042B21A8E
:1030E00011440028A16103D02046FFF7CFFF4046DE
:1030F000BDE8F08770B504460569C06A616888421A
:1031000000D80846E16821F42011E160C90312D516
:10311000A84208D02246411B2846FFF7C1FF10B144
:103120004FF0FF3070BD0020E562C4E90150E06857
:1031300020F48030E060002070BD10B50446C06807
:1031400020F02000E060A16AA06988420DD02046EE
:10315000FFF7D0FFE06820F4405040F01000E0603E
:10316000A06AA0612069E062606044F24001E0680A
:103170008843E06010BD000010000200002801D06C
:1031800000F03CB87047000010B5014602A000F006
:103190007FF8012010BD0000534947525452454466
:1031A0003A2052656469726563743A2063616E27E0
:1031B00074206F70656E3A200000000010B5431C4B
:1031C00002E010F8011B71B18107FAD14FF0013212
:1031D00002C88C1A8C4314EAC211F9D0C01A0A062C
:1031E00003D0C01E10BDC01A10BD0A0401D0801E3D
:1031F00010BD0902FCD0401E10BD0000014918207E
:10320000ABBEFEE72600020000210160C0E901100C
:10321000704710207047034640688C46002818BF4E
:10322000814284BF03464068F8D818681844884231
:1032300007D00CF1030020F00700001D411A521ABC
:103240000146081D0A60FFF7CEBC10B50146C268F2
:10325000900703D0900607D5886A0BE000F040F88D
:1032600001210160881E10BD8B69486818440B69F4
:10327000A0EB030091F8483023B191F84910A0EB7E
:10328000010010BD1103FCD50028FADD401E10BD61
:1032900070B505460C460A2000E06D1C00F018F8D9
:1032A00035B128780028F8D102E0641C00F010F84D
:1032B00014B120780028F8D1BDE870400A2000F051
:1032C00007B810B500F010F8BDE81040FFF756BF82
:1032D00008B569468DF800000320ABBE08BD0000AC
:1032E000004870479846002010B5012805D00021FD
:1032F00003A0FFF7CDFF012010BD09A1F8E70000F2
:1033000053494752544D454D3A204F7574206F66CE
:103310002068656170206D656D6F72790000000036
:103320003A2048656170206D656D6F727920636F1A
:1033300072727570746564005FEA400C08BF91F0AA
:10334000000F4FEA8C234FEAC12243EA51514FEA62
:103350001C5018BF00F5F0404FEA300018BF41F094
:1033600000415FEA6C5C00F02980BCF1FF3F08BFC0
:1033700040F080407047130C06BF12044FF0100C51
:103380004FF0000C130E04BF12020CF1080C130FC7
:1033900004BF12010CF1040C930F04BF92000CF156
:1033A000020CD30F04BF52000CF1010C11464FF078
:1033B0000002A0F11F00A0EB0C00704711F0004FBD
:1033C00008BF704731F000413FF4D5AF0B0C06BF8A
:1033D00009044FF0100C4FF0000C0B0E04BF090253
:1033E0000CF1080C0B0F04BF09010CF1040C8B0F3E
:1033F00004BF89000CF1020CCB0F04BF49000CF193
:10340000010CCCF12003A0EB0C0022FA03F302FA2A
:103410000CF241EA030100F10100704720F07F4CFB
:1034200080EA030023F07F47ACEB070303F57C53EE
:1034300000F0004003F1FF032DE980494FEA154BEE
:1034400009B44FEA144325EA0B4E24EA03480FF26D
:10345000042606EB132749083E785FEA320203FB95
:103460000667C7F5000707FB06F64FEA54374FEA31
:10347000D64606F1020607FB066CCCF1005C4FEA6B
:103480001C472CEA074C07FB06F40CFB06F504EB83
:1034900015464FEA961634BF00204FF000404FEA21
:1034A000D13706FB07FC4FEA1C4C0CFB0BF7D21B79
:1034B00003FB0CF761EB07010CFB0EF7B0EB0740C9
:1034C00072EB17420CFB08F734BFA2EB0742B2EBDA
:1034D000074261EB17414FEA0C444FEA910706FBA4
:1034E00007FC4FEA1C4C0CFB0BF7B0EBC74072EB30
:1034F000573203FB0CF734BFA2EBC742B2EBC74213
:1035000061EB57310CFB0EF7B0EBC70072EB577253
:103510000CFB08F734BFA2EBC702B2EBC70261EBAA
:103520005771039F4FEA816141EA921104EBCC0489
:103530004FEAD1374FEA826206FB07FC42EA90125B
:103540004FEA80604FEA1C4C0CFB0BF7D21B03FBCD
:103550000CF761EB07010CFB0EF7B0EB074072EBC9
:1035600017420CFB08F734BFA2EB0742B2EB07424D
:1035700061EB17414FEA8C554FEA910704EB9C240D
:1035800006FB07FC4FEA1C4C0CFB0BF7B0EBC740EB
:1035900072EB573203FB0CF734BFA2EBC742B2EB1E
:1035A000C74261EB57310CFB0EF7B0EBC70072EB73
:1035B00057720CFB08F734BFA2EBC702B2EBC7028D
:1035C00061EB577115EB4C254FEA816141EA92118D
:1035D0004FEA82624FEAD13742EA901206FB07FCBB
:1035E00044F100044FEA80604FEA1C4C0CFB0BF7DF
:1035F000D21B03FB0CF761EB07010CFB0EF7B0EBE2
:10360000074072EB17420CFB08F734BFA2EB0742EE
:10361000B2EB074261EB174115EB1C154FEA813104
:1036200041EA92414FEA823242EA90424FEA8030C8
:103630004FEA0C7644F1000448EA03434EEA0B4893
:103640004FF0000EB2EB080C71EB030724BF62468B
:1036500039464EEB0E0E4FF0000B00185241494117
:103660004BEB0B0BB2EB080C71EB03077BF1000B80
:1036700024BF624639464EEB0E0E4FF0000B001889
:10368000524149414BEB0B0BB2EB080C71EB0307BA
:103690007BF1000B24BF624639464EEB0E0E51EA19
:1036A000020718BF46F0010616EB0E7655F1000230
:1036B00054F1000103D5BDE88901BDE80088BDE8EB
:1036C0008901BDE80048B619524141EB0101A3F15F
:1036D0000103704780807F7E7D7C7B7A7978777666
:1036E00076757473727171706F6E6E6D6C6C6B6ADF
:1036F0006A6968686766666564646363626161607D
:10370000605F5F5E5E5D5D5C5C5B5B5A5A595958F9
:103710005857575656555555545453535252525163
:10372000515050504F4F4F4E4E4D4D4D4C4C4C4BB9
:103730004B4B4A4A4A494949484848474747474600
:10374000464645454544444444434343434242423C
:1037500042414141002B26D4770021D01CB54FEACD
:10376000370703B44FF010004FF010014FF0000086
:103770000FBCBDE810400BF1010BBBF1010F08BFFE
:103780005FEA170722BF12F1010211F101014FF0A8
:10379000004143F1000300F0004043EA000070479D
:1037A000F9D35708DAE746EA064613F1400F4FEA25
:1037B00016461FDD13F1200FDFBF16430A46002116
:1037C00020335B42C8D0C3F1200746EA064602FA1E
:1037D00007F74FEA164646EA0706C3F1200722FA22
:1037E00003F201FA07F721FA03F14FF0000342EA6E
:1037F0000702B1E746EA020646EA06464FEA1646DF
:1038000046EA0106BCBF46EA0646360C4FF0000306
:103810004FF000024FF000019EE72DE9C0489346AB
:1038200030B491E8380007C831EA400C48BF34EAA8
:10383000430C03D5FFF7F2FDFFF78CFFF0BCBDE8AA
:1038400000882DE9C048934630B491E8380007C895
:1038500010F0804F08BF13F0804F03D100F005F83F
:10386000FFF778FFF0BCBDE8008820F07F4780EAD2
:10387000030023F07F4C07EB0C03A3F57C5300F00F
:103880000040A3F1FE0392F0000F00F0B38095F02A
:10389000000F00F077802DE901494FEA11404FEA0F
:1038A000144621EA004800FB06FC24EA064708FB10
:1038B00006F607FB08F800FB07F718EB06484CEB89
:1038C000164C4FEA124B18EB07484FEA15464CEBE3
:1038D000174022EA0B4E0BFB06FC25EA06470EFBBF
:1038E00006F607FB0EFE0BFB07F71EEB064E4CEB36
:1038F000164C4FF000061EEB074E4CEB174B18EB27
:103900000B0840F1000018EB0E0B58EB000840F1DB
:1039100000008F1A4FF000013CBFC943661B14BF63
:10392000B5EB040C00213CBFC943F61B4FEA17441A
:103930004EEA8E0E27EA04454FEA1C4704FB076255
:103940002CEA074C05FB07F70CFB05F604FB0CFC07
:1039500016EB074642EB174216EB0C4642EB1C42B5
:103960001BEB060658EB0202414146EA9E0601D5D2
:10397000BDE80189B619524141EB0101A3F10103F0
:10398000BDE801894FEA14454FEA114724EA05468C
:1039900021EA074C05FB07F406FB07F70CFB06F1D1
:1039A00005FB0CFC11EB074144EB17444FEA1247AF
:1039B00011EB0C4144EB1C4422EA074C05FB07F2D7
:1039C00006FB07F70CFB06F605FB0CFC16EB07469F
:1039D00042EB174216EB0C4642EB1C456A1854F1B9
:1039E000000148BF7047B619524141EB0101A3F1F4
:1039F0000103704795F0000F37D04FEA11424FEAAC
:103A0000144721EA024624EA074C02FB07F106FBB1
:103A100007F70CFB06F402FB0CFC14EB074441EB2C
:103A200017414FEA154714EB0C4441EB1C4125EAC2
:103A3000074C02FB07F506FB07F70CFB06F602FB3B
:103A40000CFC16EB074645EB174516EB0C4645EB11
:103A50001C42121951F1000148BF7047B61952417A
:103A600041EB0101A3F1010370474FEA14454FEA0E
:103A7000114724EA054621EA074C05FB07F106FB3E
:103A800007F70CFB06F24FF0000605FB0CFC12EBEF
:103A9000074241EB174112EB0C4251EB1C4148BF6E
:103AA0007047921841EB0101A3F1010370474900EF
:103AB00050EAC12018BF04204A0D18BF40F0010091
:103AC00040F2FF72B2EB515F08BF40F002000128E4
:103AD00008BF0520704730380A2801D201207047FE
:103AE0000020704710B500290AD00878002807D0B8
:103AF00005487844FFF792F9002801D0002010BD56
:103B00000248784410BD00009A08000092080000A6
:103B10000808A0F500114FEA3101704743004FEA51
:103B2000D30C4FEA3C0C43401FBF40070CF16051DF
:103B300013F0FE4F70471CF0006F03D100200CF013
:103B4000004170470CF0004343EA507010B540EA62
:103B5000CC0000F0E4F900BF000000924FEA000141
:103B6000FFF7D6BF4FF000414FF00000A1F5002154
:103B70007047000090EA010F48BF81F0004100F15A
:103B80002082421A3CBF801A89184FEAD0524FF067
:103B90007F4C1CEA410FA2EBD15318BF9CEA026F85
:103BA00000F03B804FF0004C4CEA00204CEA012131
:103BB00021FA03FC10EB0C0C1ED202F1FF325FEA7B
:103BC0001C2040EBC25038BF70471CF07F0F4FEAFB
:103BD000400C18BFBCF17F4F38BF7047C3F12003C2
:103BE000994008BF20F00100BCF17F4F38BF7047FB
:103BF000A0F1C04000F0D9B94FEA3C00000A40EB08
:103C0000C25028BF1CF0FF0F4FEA400CE6D018BF8F
:103C1000BCF17F4F38BF7047EAE79CEA026F05D0DE
:103C200010EA5C0F08BF00F00040704710B500F0CC
:103C300076F900BF64FBBE3E4FF47F0C1CEAD01245
:103C40001EBF1CEAD11392EA0C0F93EA0C0F00F08E
:103C5000858090EA010F48BF42F4807240F4000C66
:103C600041F400002CF07F4120F07F4000B58142FC
:103C7000A2EB03020FF2081CACEB504EC0F10000A7
:103C80009EF800E04FEA4E0E00FB0EFC38BF4900E4
:103C90004FEA2C1C02F5FA020CFB0EF34FEACE1E83
:103CA0004FEA112C4FEAC1210EEB635E42EB224238
:103CB0000EFB0CFC4FEA1C5300FB03114FEA112CC6
:103CC0004FEA01310EFB0CFC4FEADC4C00FB0C11FF
:103CD000C14228BF09184CEB03335DF804EB10EB2D
:103CE000410143EBC250B2F57C0F38BF704729D574
:103CF00012F0F00F1CBF00F1C04000F00040704710
:103D0000008182838485868788898B8C8D8E8F91B4
:103D10009293959697999A9C9D9FA0A2A3A5A7A8D8
:103D2000AAACAEB0B2B3B5B7B9BCBEC0C2C5C7C904
:103D3000CCCED1D4D7D9DCDFE2E6E9ECF0F3F7FA68
:103D4000FE0000004FEA400C0CF1807CBCF17E4F7D
:103D500028BF7047B0F1C04000F027B990EA010FCA
:103D60000CEAD11348BF42F48072624538BF634504
:103D700007D213F47F0F16D080EA010000F0004054
:103D8000704710B500F0CBF8097EFC3E00F005B896
:103D900080EA010000F00040704780EA010000F076
:103DA000004000F002B912F47F0F04BF02487047D0
:103DB00080EA010000F0F9B80000C07F41000B0E5E
:103DC000D3F19E0208D950F400034FEA032323FAEB
:103DD00002F048BF4042704710B500F0A0F800BFA5
:103DE00049922480002070476FF0004282EA200050
:103DF00070470000B0FA80F310FA03F2C3F19D039C
:103E00000AD0D90501EB1220530638BF704700F1E4
:103E1000010008BF20F00100704700004FF47F0C44
:103E20001CEAD0121EBF1CEAD11392EA0C0F93EACF
:103E30000C0F00F0478090EA010F48BF42F48072F7
:103E40004FF0004C4CEA00204CEA012102EB030247
:103E5000A0FB0113A2F50002002918BF43F00103E3
:103E60005B0028BF4FEA330342EB22425FEA132C88
:103E70004CEBC2502EBFBCEB436FB2F57C0F7047CA
:103E80004FEA036CBCF1004F08BF20F00100B2F50F
:103E90007C0F38BF70470BD582F0FF0212F5803FD0
:103EA000C8BF704700F1C040D8BF00F00040704765
:103EB00000F5000C5FEA4C0C48BF7047B0F1C04001
:103EC00000F073B890EA010F0CEAD11348BF42F436
:103ED0008072624538BF634504D280EA010000F079
:103EE0000040704710B500F01AF800BF8900013E8D
:103EF00000F007B800F009B85FEA410C5FEA1C6CFB
:103F000008D080EA010000F050B85FEA400C5FEA98
:103F10001C6CF6D14FF00040A0F5800070470EF108
:103F2000020E2EF0030E5EF8044B244204D44FEA36
:103F30004102B2F17F4F11D84FEA4003B3F17F4FF6
:103F40000CD80ED14FEAD07CB2F17F4F0CEB4C0C69
:103F50000CF1020C08BF4CEBD17C04E04FF0080CD4
:103F600001E04FEAD17C0CEB4C0324FA03F404F09B
:103F70000704B4F1040C06D20EEB840CBDE810402B
:103F80004CF0010C6047DFE80CF0070802024FF02C
:103F90000040A0F5800010BD0846420018BFD2F1D5
:103FA000807288BF00F0004010BDFF2141EAD05070
:103FB000C005704790EA010F48BF81F000413FF50E
:103FC000E0AD421A04D882F00042A0EB0200114496
:103FD0004FEAD0524FF07F4C1CEA410FA2EBD15375
:103FE00018BF9CEA026F4AD04FF0004C4CEA002008
:103FF0004CEA012121FA03FCB0EB0C0C0FD412F0B7
:10400000FE0F36D05FEA4C001DD5001240EBC250C7
:1040100038BF70471CF03F0F18BF70470BE0A2F18C
:1040200001025FEA1C2040EBC25038BF70471CF011
:104030007F0F18BF7047C3F12003994014BF401E83
:1040400020F00100704780084FEA122308BF704734
:10405000B0FA80FCA2EB0C02CCF1280C60FA0CF058
:1040600093EA122F04BF00EBC25070474FEAC370AF
:104070007047130A5FEADC1008BF7047F6E79CEA56
:10408000026F04D010EA5C0F08BF0020704710B523
:10409000FFF745FF40DFF63E81F000407047FEF736
:1040A00045BA00C1814001C0804101C0804100C1CA
:1040B000814001C0804100C1814000C1814001C0F8
:1040C000804101C0804100C1814000C1814001C0E8
:1040D000804100C1814001C0804101C0804100C1D8
:1040E000814001C0804100C1814000C1814001C0C8
:1040F000804100C1814001C0804101C0804100C1B8
:10410000814000C1814001C0804101C0804100C1A7
:10411000814001C0804100C1814000C1814001C097
:10412000804101C0804100C1814000C1814001C087
:10413000804100C1814001C0804101C0804100C177
:10414000814000C1814001C0804101C0804100C167
:10415000814001C0804100C1814000C1814001C057
:10416000804100C1814001C0804101C0804100C147
:10417000814001C0804100C1814000C1814001C037
:10418000804101C0804100C1814000C1814001C027
:10419000804100C1814001C0804101C0804100C117
:1041A000814000C0C101C30302C2C60607C705C5DE
:1041B000C404CC0C0DCD0FCFCE0E0ACACB0BC9094F
:1041C00008C8D81819D91BDBDA1A1EDEDF1FDD1D5F
:1041D0001CDC14D4D515D71716D6D21213D311D18F
:1041E000D010F03031F133F3F23236F6F737F535DF
:1041F00034F43CFCFD3DFF3F3EFEFA3A3BFB39F90F
:10420000F83828E8E929EB2B2AEAEE2E2FEF2DEDDE
:10421000EC2CE42425E527E7E62622E2E323E1214E
:1042200020E0A06061A163A3A26266A6A767A5655E
:1042300064A46CACAD6DAF6F6EAEAA6A6BAB69A9CE
:10424000A86878B8B979BB7B7ABABE7E7FBF7DBDDE
:10425000BC7CB47475B577B7B67672B2B373B1710E
:1042600070B05090915193535292965657975595DE
:1042700094549C5C5D9D5F9F9E5E5A9A9B5B99598E
:104280005898884849894B8B8A4A4E8E8F4F8D4D5E
:104290004C8C4484854587474686824243834181CE
:1042A0008040303132333435363738394142434437
:1042B000454640305800303132333435363738399E
:1042C000616263646566403078000000024000006F
:1042D000000000A00000000005400000000000C831
:1042E000000000000C4000000000409C00000000A6
:1042F000194000000020BCBE000000003440000057
:10430000BFC91B8E00000004B5400000504BCFD049
:104310006607E2CF010000006C4100003E8251AA16
:10432000DFEEA73401000000D9420000DCB5A0E2B6
:104330003A301F97FFFFFFFFB4450000FD25A0C8DE
:10434000E9A3C14FFFFFFFFFFF3F00000000008017
:1043500000000000FF3F000000000080000000009F
:104360003A7474003A7474003A747400A8430008F4
:1043700000000020C40000006C0100086C4400082C
:10438000C4000020344C0000880100081C0000001C
:1043900043000000F8FFFFFF0C0000000E000000CB
:1043A0000F0000002E0000000000000000000000D0
:1043B000524D6773775E6902040608000000000131
:1043C00002030401020304060708090000A24A04CC
:1043D00000000000000000000102030406070809B5
:1043E0000000000000000306004300000000020679
:1043F000004300000000000000000000000000007A
:104400000000000000000000F84300000000000071
:10441000000000000000000000000000000000009C
:10442000AAAAAAAA000000000000000000000000E4
:10443000000000000000000000000000000000007C
:10444000000000000000000000000000000000006C
:10445000000000000000000000000000000000005C
:0C44600000000000000000000000000050
:0400000508000131BD
:00000001FF
